{
    "contractName": "StratManager",
    "abi": [
        {
            "inputs": [
                {
                    "internalType": "address",
                    "name": "_keeper",
                    "type": "address"
                },
                {
                    "internalType": "address",
                    "name": "_strategist",
                    "type": "address"
                },
                {
                    "internalType": "address",
                    "name": "_unirouter",
                    "type": "address"
                },
                {
                    "internalType": "address",
                    "name": "_vault",
                    "type": "address"
                },
                {
                    "internalType": "address",
                    "name": "_perFeeRecipient",
                    "type": "address"
                }
            ],
            "stateMutability": "nonpayable",
            "type": "constructor"
        },
        {
            "anonymous": false,
            "inputs": [
                {
                    "indexed": true,
                    "internalType": "address",
                    "name": "previousOwner",
                    "type": "address"
                },
                {
                    "indexed": true,
                    "internalType": "address",
                    "name": "newOwner",
                    "type": "address"
                }
            ],
            "name": "OwnershipTransferred",
            "type": "event"
        },
        {
            "anonymous": false,
            "inputs": [
                {
                    "indexed": false,
                    "internalType": "address",
                    "name": "account",
                    "type": "address"
                }
            ],
            "name": "Paused",
            "type": "event"
        },
        {
            "anonymous": false,
            "inputs": [
                {
                    "indexed": false,
                    "internalType": "address",
                    "name": "account",
                    "type": "address"
                }
            ],
            "name": "Unpaused",
            "type": "event"
        },
        {
            "inputs": [],
            "name": "beforeDeposit",
            "outputs": [],
            "stateMutability": "nonpayable",
            "type": "function"
        },
        {
            "inputs": [],
            "name": "keeper",
            "outputs": [
                {
                    "internalType": "address",
                    "name": "",
                    "type": "address"
                }
            ],
            "stateMutability": "view",
            "type": "function"
        },
        {
            "inputs": [],
            "name": "owner",
            "outputs": [
                {
                    "internalType": "address",
                    "name": "",
                    "type": "address"
                }
            ],
            "stateMutability": "view",
            "type": "function"
        },
        {
            "inputs": [],
            "name": "paused",
            "outputs": [
                {
                    "internalType": "bool",
                    "name": "",
                    "type": "bool"
                }
            ],
            "stateMutability": "view",
            "type": "function"
        },
        {
            "inputs": [],
            "name": "perFeeRecipient",
            "outputs": [
                {
                    "internalType": "address",
                    "name": "",
                    "type": "address"
                }
            ],
            "stateMutability": "view",
            "type": "function"
        },
        {
            "inputs": [],
            "name": "renounceOwnership",
            "outputs": [],
            "stateMutability": "nonpayable",
            "type": "function"
        },
        {
            "inputs": [
                {
                    "internalType": "address",
                    "name": "_keeper",
                    "type": "address"
                }
            ],
            "name": "setKeeper",
            "outputs": [],
            "stateMutability": "nonpayable",
            "type": "function"
        },
        {
            "inputs": [
                {
                    "internalType": "address",
                    "name": "_strategist",
                    "type": "address"
                }
            ],
            "name": "setStrategist",
            "outputs": [],
            "stateMutability": "nonpayable",
            "type": "function"
        },
        {
            "inputs": [
                {
                    "internalType": "address",
                    "name": "_unirouter",
                    "type": "address"
                }
            ],
            "name": "setUnirouter",
            "outputs": [],
            "stateMutability": "nonpayable",
            "type": "function"
        },
        {
            "inputs": [
                {
                    "internalType": "address",
                    "name": "_vault",
                    "type": "address"
                }
            ],
            "name": "setVault",
            "outputs": [],
            "stateMutability": "nonpayable",
            "type": "function"
        },
        {
            "inputs": [
                {
                    "internalType": "address",
                    "name": "_perFeeRecipient",
                    "type": "address"
                }
            ],
            "name": "setperFeeRecipient",
            "outputs": [],
            "stateMutability": "nonpayable",
            "type": "function"
        },
        {
            "inputs": [],
            "name": "strategist",
            "outputs": [
                {
                    "internalType": "address",
                    "name": "",
                    "type": "address"
                }
            ],
            "stateMutability": "view",
            "type": "function"
        },
        {
            "inputs": [
                {
                    "internalType": "address",
                    "name": "newOwner",
                    "type": "address"
                }
            ],
            "name": "transferOwnership",
            "outputs": [],
            "stateMutability": "nonpayable",
            "type": "function"
        },
        {
            "inputs": [],
            "name": "unirouter",
            "outputs": [
                {
                    "internalType": "address",
                    "name": "",
                    "type": "address"
                }
            ],
            "stateMutability": "view",
            "type": "function"
        },
        {
            "inputs": [],
            "name": "vault",
            "outputs": [
                {
                    "internalType": "address",
                    "name": "",
                    "type": "address"
                }
            ],
            "stateMutability": "view",
            "type": "function"
        }
    ],
    "bytecode": "608060405234801561001057600080fd5b5060405161073c38038061073c83398101604081905261002f9161011e565b61003f61003a6100ae565b6100b2565b6000805460ff60a01b19169055600180546001600160a01b03199081166001600160a01b03978816179091556002805482169587169590951790945560038054851693861693909317909255600480548416918516919091179055600580549092169216919091179055610182565b3390565b600080546001600160a01b038381166001600160a01b0319831681178455604051919092169283917f8be0079c531659141344cd1fd0a4f28419497f9722a3daafe3b4186f6b6457e09190a35050565b80516001600160a01b038116811461011957600080fd5b919050565b600080600080600060a08688031215610135578081fd5b61013e86610102565b945061014c60208701610102565b935061015a60408701610102565b925061016860608701610102565b915061017660808701610102565b90509295509295909350565b6105ab806101916000396000f3fe608060405234801561001057600080fd5b50600436106100f55760003560e01c8063748747e611610097578063c7b9d53011610066578063c7b9d53014610198578063d92f3d73146101ab578063f2fde38b146101be578063fbfa77cf146101d1576100f5565b8063748747e6146101625780638da5cb5b14610175578063aced16611461017d578063bbad63f914610185576100f5565b8063573fef0a116100d3578063573fef0a146101285780635c975abb146101325780636817031b14610147578063715018a61461015a576100f5565b806311a9bc6e146100fa5780631fe4a68614610118578063257ae0de14610120575b600080fd5b6101026101d9565b60405161010f9190610494565b60405180910390f35b6101026101e8565b6101026101f7565b610130610206565b005b61013a610208565b60405161010f91906104a8565b610130610155366004610466565b610218565b610130610242565b610130610170366004610466565b610254565b6101026102cc565b6101026102db565b610130610193366004610466565b6102ea565b6101306101a6366004610466565b610314565b6101306101b9366004610466565b610360565b6101306101cc366004610466565b61038a565b6101026103c4565b6005546001600160a01b031681565b6002546001600160a01b031681565b6003546001600160a01b031681565b565b600054600160a01b900460ff1690565b6102206103d3565b600480546001600160a01b0319166001600160a01b0392909216919091179055565b61024a6103d3565b6102066000610412565b61025c6102cc565b6001600160a01b0316336001600160a01b0316148061028557506001546001600160a01b031633145b6102aa5760405162461bcd60e51b81526004016102a190610553565b60405180910390fd5b600180546001600160a01b0319166001600160a01b0392909216919091179055565b6000546001600160a01b031690565b6001546001600160a01b031681565b6102f26103d3565b600580546001600160a01b0319166001600160a01b0392909216919091179055565b6002546001600160a01b0316331461033e5760405162461bcd60e51b81526004016102a1906104b3565b600280546001600160a01b0319166001600160a01b0392909216919091179055565b6103686103d3565b600380546001600160a01b0319166001600160a01b0392909216919091179055565b6103926103d3565b6001600160a01b0381166103b85760405162461bcd60e51b81526004016102a1906104d8565b6103c181610412565b50565b6004546001600160a01b031681565b6103db610462565b6001600160a01b03166103ec6102cc565b6001600160a01b0316146102065760405162461bcd60e51b81526004016102a19061051e565b600080546001600160a01b038381166001600160a01b0319831681178455604051919092169283917f8be0079c531659141344cd1fd0a4f28419497f9722a3daafe3b4186f6b6457e09190a35050565b3390565b600060208284031215610477578081fd5b81356001600160a01b038116811461048d578182fd5b9392505050565b6001600160a01b0391909116815260200190565b901515815260200190565b6020808252600b908201526a085cdd1c985d1959da5cdd60aa1b604082015260600190565b60208082526026908201527f4f776e61626c653a206e6577206f776e657220697320746865207a65726f206160408201526564647265737360d01b606082015260800190565b6020808252818101527f4f776e61626c653a2063616c6c6572206973206e6f7420746865206f776e6572604082015260600190565b60208082526008908201526710b6b0b730b3b2b960c11b60408201526060019056fea2646970667358221220b08dae5c2bc4f770ca8185af5c115ccdd1d47c519c5ab5e4f30052b26366758d64736f6c63430008010033",
    "sourcePath": "c:/Users/ceaho/Documents/GitHub/CeazorVaults/beefy-contracts/strategies/StratManager.sol",
    "compiler": {
        "name": "solc",
        "version": "0.8.1+commit.df193b15"
    },
    "functionHashes": {
        "beforeDeposit()": "573fef0a",
        "keeper()": "aced1661",
        "owner()": "8da5cb5b",
        "paused()": "5c975abb",
        "perFeeRecipient()": "11a9bc6e",
        "renounceOwnership()": "715018a6",
        "setKeeper(address)": "748747e6",
        "setStrategist(address)": "c7b9d530",
        "setUnirouter(address)": "d92f3d73",
        "setVault(address)": "6817031b",
        "setperFeeRecipient(address)": "bbad63f9",
        "strategist()": "1fe4a686",
        "transferOwnership(address)": "f2fde38b",
        "unirouter()": "257ae0de",
        "vault()": "fbfa77cf"
    },
    "gasEstimates": {
        "creation": {
            "codeDepositCost": "290200",
            "executionCost": "infinite",
            "totalCost": "infinite"
        },
        "external": {
            "beforeDeposit()": "167",
            "keeper()": "1137",
            "owner()": "1115",
            "paused()": "1102",
            "perFeeRecipient()": "1094",
            "renounceOwnership()": "infinite",
            "setKeeper(address)": "22907",
            "setStrategist(address)": "21998",
            "setUnirouter(address)": "22134",
            "setVault(address)": "22157",
            "setperFeeRecipient(address)": "22179",
            "strategist()": "1116",
            "transferOwnership(address)": "23754",
            "unirouter()": "1138",
            "vault()": "1158"
        }
    }
}