{
    "contractName": "StrategyBeethovenxDualToBeets",
    "abi": [
        {
            "inputs": [
                {
                    "internalType": "bytes32[]",
                    "name": "_balancerPoolIds",
                    "type": "bytes32[]"
                },
                {
                    "internalType": "uint256",
                    "name": "_chefPoolId",
                    "type": "uint256"
                },
                {
                    "internalType": "address",
                    "name": "_chef",
                    "type": "address"
                },
                {
                    "internalType": "address",
                    "name": "_input",
                    "type": "address"
                },
                {
                    "internalType": "address",
                    "name": "_vault",
                    "type": "address"
                },
                {
                    "internalType": "address",
                    "name": "_unirouter",
                    "type": "address"
                },
                {
                    "internalType": "address",
                    "name": "_keeper",
                    "type": "address"
                },
                {
                    "internalType": "address",
                    "name": "_strategist",
                    "type": "address"
                },
                {
                    "internalType": "address",
                    "name": "_perFeeRecipient",
                    "type": "address"
                }
            ],
            "stateMutability": "nonpayable",
            "type": "constructor"
        },
        {
            "anonymous": false,
            "inputs": [
                {
                    "indexed": false,
                    "internalType": "uint256",
                    "name": "tvl",
                    "type": "uint256"
                }
            ],
            "name": "Deposit",
            "type": "event"
        },
        {
            "anonymous": false,
            "inputs": [
                {
                    "indexed": true,
                    "internalType": "address",
                    "name": "previousOwner",
                    "type": "address"
                },
                {
                    "indexed": true,
                    "internalType": "address",
                    "name": "newOwner",
                    "type": "address"
                }
            ],
            "name": "OwnershipTransferred",
            "type": "event"
        },
        {
            "anonymous": false,
            "inputs": [
                {
                    "indexed": false,
                    "internalType": "address",
                    "name": "account",
                    "type": "address"
                }
            ],
            "name": "Paused",
            "type": "event"
        },
        {
            "anonymous": false,
            "inputs": [
                {
                    "indexed": true,
                    "internalType": "address",
                    "name": "harvester",
                    "type": "address"
                },
                {
                    "indexed": false,
                    "internalType": "uint256",
                    "name": "wantHarvested",
                    "type": "uint256"
                },
                {
                    "indexed": false,
                    "internalType": "uint256",
                    "name": "tvl",
                    "type": "uint256"
                }
            ],
            "name": "StratHarvest",
            "type": "event"
        },
        {
            "anonymous": false,
            "inputs": [
                {
                    "indexed": false,
                    "internalType": "address",
                    "name": "account",
                    "type": "address"
                }
            ],
            "name": "Unpaused",
            "type": "event"
        },
        {
            "anonymous": false,
            "inputs": [
                {
                    "indexed": false,
                    "internalType": "uint256",
                    "name": "tvl",
                    "type": "uint256"
                }
            ],
            "name": "Withdraw",
            "type": "event"
        },
        {
            "inputs": [],
            "name": "Beets",
            "outputs": [
                {
                    "internalType": "address",
                    "name": "",
                    "type": "address"
                }
            ],
            "stateMutability": "view",
            "type": "function"
        },
        {
            "inputs": [],
            "name": "MAX_CALL_FEE",
            "outputs": [
                {
                    "internalType": "uint256",
                    "name": "",
                    "type": "uint256"
                }
            ],
            "stateMutability": "view",
            "type": "function"
        },
        {
            "inputs": [],
            "name": "MAX_FEE",
            "outputs": [
                {
                    "internalType": "uint256",
                    "name": "",
                    "type": "uint256"
                }
            ],
            "stateMutability": "view",
            "type": "function"
        },
        {
            "inputs": [],
            "name": "MAX_TOTAL_FEE",
            "outputs": [
                {
                    "internalType": "uint256",
                    "name": "",
                    "type": "uint256"
                }
            ],
            "stateMutability": "view",
            "type": "function"
        },
        {
            "inputs": [],
            "name": "STRATEGIST_FEE",
            "outputs": [
                {
                    "internalType": "uint256",
                    "name": "",
                    "type": "uint256"
                }
            ],
            "stateMutability": "view",
            "type": "function"
        },
        {
            "inputs": [],
            "name": "WITHDRAWAL_FEE_CAP",
            "outputs": [
                {
                    "internalType": "uint256",
                    "name": "",
                    "type": "uint256"
                }
            ],
            "stateMutability": "view",
            "type": "function"
        },
        {
            "inputs": [],
            "name": "WITHDRAWAL_MAX",
            "outputs": [
                {
                    "internalType": "uint256",
                    "name": "",
                    "type": "uint256"
                }
            ],
            "stateMutability": "view",
            "type": "function"
        },
        {
            "inputs": [],
            "name": "balanceOf",
            "outputs": [
                {
                    "internalType": "uint256",
                    "name": "",
                    "type": "uint256"
                }
            ],
            "stateMutability": "view",
            "type": "function"
        },
        {
            "inputs": [],
            "name": "balanceOfPool",
            "outputs": [
                {
                    "internalType": "uint256",
                    "name": "",
                    "type": "uint256"
                }
            ],
            "stateMutability": "view",
            "type": "function"
        },
        {
            "inputs": [],
            "name": "balanceOfWant",
            "outputs": [
                {
                    "internalType": "uint256",
                    "name": "",
                    "type": "uint256"
                }
            ],
            "stateMutability": "view",
            "type": "function"
        },
        {
            "inputs": [],
            "name": "beforeDeposit",
            "outputs": [],
            "stateMutability": "nonpayable",
            "type": "function"
        },
        {
            "inputs": [],
            "name": "callFee",
            "outputs": [
                {
                    "internalType": "uint256",
                    "name": "",
                    "type": "uint256"
                }
            ],
            "stateMutability": "view",
            "type": "function"
        },
        {
            "inputs": [],
            "name": "callReward",
            "outputs": [
                {
                    "internalType": "uint256",
                    "name": "",
                    "type": "uint256"
                }
            ],
            "stateMutability": "nonpayable",
            "type": "function"
        },
        {
            "inputs": [],
            "name": "chef",
            "outputs": [
                {
                    "internalType": "address",
                    "name": "",
                    "type": "address"
                }
            ],
            "stateMutability": "view",
            "type": "function"
        },
        {
            "inputs": [],
            "name": "chefPoolId",
            "outputs": [
                {
                    "internalType": "uint256",
                    "name": "",
                    "type": "uint256"
                }
            ],
            "stateMutability": "view",
            "type": "function"
        },
        {
            "inputs": [],
            "name": "deposit",
            "outputs": [],
            "stateMutability": "nonpayable",
            "type": "function"
        },
        {
            "inputs": [],
            "name": "funds",
            "outputs": [
                {
                    "internalType": "address",
                    "name": "sender",
                    "type": "address"
                },
                {
                    "internalType": "bool",
                    "name": "fromInternalBalance",
                    "type": "bool"
                },
                {
                    "internalType": "address payable",
                    "name": "recipient",
                    "type": "address"
                },
                {
                    "internalType": "bool",
                    "name": "toInternalBalance",
                    "type": "bool"
                }
            ],
            "stateMutability": "view",
            "type": "function"
        },
        {
            "inputs": [
                {
                    "internalType": "address",
                    "name": "callFeeRecipient",
                    "type": "address"
                }
            ],
            "name": "harvest",
            "outputs": [],
            "stateMutability": "nonpayable",
            "type": "function"
        },
        {
            "inputs": [],
            "name": "harvest",
            "outputs": [],
            "stateMutability": "nonpayable",
            "type": "function"
        },
        {
            "inputs": [],
            "name": "harvestOnDeposit",
            "outputs": [
                {
                    "internalType": "bool",
                    "name": "",
                    "type": "bool"
                }
            ],
            "stateMutability": "view",
            "type": "function"
        },
        {
            "inputs": [],
            "name": "input",
            "outputs": [
                {
                    "internalType": "address",
                    "name": "",
                    "type": "address"
                }
            ],
            "stateMutability": "view",
            "type": "function"
        },
        {
            "inputs": [],
            "name": "inputSwapPoolId",
            "outputs": [
                {
                    "internalType": "bytes32",
                    "name": "",
                    "type": "bytes32"
                }
            ],
            "stateMutability": "view",
            "type": "function"
        },
        {
            "inputs": [],
            "name": "keeper",
            "outputs": [
                {
                    "internalType": "address",
                    "name": "",
                    "type": "address"
                }
            ],
            "stateMutability": "view",
            "type": "function"
        },
        {
            "inputs": [],
            "name": "lastHarvest",
            "outputs": [
                {
                    "internalType": "uint256",
                    "name": "",
                    "type": "uint256"
                }
            ],
            "stateMutability": "view",
            "type": "function"
        },
        {
            "inputs": [
                {
                    "internalType": "uint256",
                    "name": "",
                    "type": "uint256"
                }
            ],
            "name": "lpTokens",
            "outputs": [
                {
                    "internalType": "address",
                    "name": "",
                    "type": "address"
                }
            ],
            "stateMutability": "view",
            "type": "function"
        },
        {
            "inputs": [],
            "name": "managerHarvest",
            "outputs": [],
            "stateMutability": "nonpayable",
            "type": "function"
        },
        {
            "inputs": [],
            "name": "native",
            "outputs": [
                {
                    "internalType": "address",
                    "name": "",
                    "type": "address"
                }
            ],
            "stateMutability": "view",
            "type": "function"
        },
        {
            "inputs": [],
            "name": "nativeSwapPoolId",
            "outputs": [
                {
                    "internalType": "bytes32",
                    "name": "",
                    "type": "bytes32"
                }
            ],
            "stateMutability": "view",
            "type": "function"
        },
        {
            "inputs": [],
            "name": "owner",
            "outputs": [
                {
                    "internalType": "address",
                    "name": "",
                    "type": "address"
                }
            ],
            "stateMutability": "view",
            "type": "function"
        },
        {
            "inputs": [],
            "name": "panic",
            "outputs": [],
            "stateMutability": "nonpayable",
            "type": "function"
        },
        {
            "inputs": [],
            "name": "pause",
            "outputs": [],
            "stateMutability": "nonpayable",
            "type": "function"
        },
        {
            "inputs": [],
            "name": "paused",
            "outputs": [
                {
                    "internalType": "bool",
                    "name": "",
                    "type": "bool"
                }
            ],
            "stateMutability": "view",
            "type": "function"
        },
        {
            "inputs": [],
            "name": "perFee",
            "outputs": [
                {
                    "internalType": "uint256",
                    "name": "",
                    "type": "uint256"
                }
            ],
            "stateMutability": "view",
            "type": "function"
        },
        {
            "inputs": [],
            "name": "perFeeRecipient",
            "outputs": [
                {
                    "internalType": "address",
                    "name": "",
                    "type": "address"
                }
            ],
            "stateMutability": "view",
            "type": "function"
        },
        {
            "inputs": [],
            "name": "renounceOwnership",
            "outputs": [],
            "stateMutability": "nonpayable",
            "type": "function"
        },
        {
            "inputs": [],
            "name": "retireStrat",
            "outputs": [],
            "stateMutability": "nonpayable",
            "type": "function"
        },
        {
            "inputs": [],
            "name": "reward",
            "outputs": [
                {
                    "internalType": "address",
                    "name": "",
                    "type": "address"
                }
            ],
            "stateMutability": "view",
            "type": "function"
        },
        {
            "inputs": [],
            "name": "rewardSwapPoolId",
            "outputs": [
                {
                    "internalType": "bytes32",
                    "name": "",
                    "type": "bytes32"
                }
            ],
            "stateMutability": "view",
            "type": "function"
        },
        {
            "inputs": [],
            "name": "rewarder",
            "outputs": [
                {
                    "internalType": "address",
                    "name": "",
                    "type": "address"
                }
            ],
            "stateMutability": "view",
            "type": "function"
        },
        {
            "inputs": [],
            "name": "rewardsAvailable",
            "outputs": [
                {
                    "internalType": "uint256",
                    "name": "",
                    "type": "uint256"
                },
                {
                    "internalType": "uint256",
                    "name": "",
                    "type": "uint256"
                }
            ],
            "stateMutability": "view",
            "type": "function"
        },
        {
            "inputs": [
                {
                    "internalType": "uint256",
                    "name": "_fee",
                    "type": "uint256"
                }
            ],
            "name": "setCallFee",
            "outputs": [],
            "stateMutability": "nonpayable",
            "type": "function"
        },
        {
            "inputs": [
                {
                    "internalType": "bool",
                    "name": "_harvestOnDeposit",
                    "type": "bool"
                }
            ],
            "name": "setHarvestOnDeposit",
            "outputs": [],
            "stateMutability": "nonpayable",
            "type": "function"
        },
        {
            "inputs": [
                {
                    "internalType": "address",
                    "name": "_keeper",
                    "type": "address"
                }
            ],
            "name": "setKeeper",
            "outputs": [],
            "stateMutability": "nonpayable",
            "type": "function"
        },
        {
            "inputs": [
                {
                    "internalType": "address",
                    "name": "_strategist",
                    "type": "address"
                }
            ],
            "name": "setStrategist",
            "outputs": [],
            "stateMutability": "nonpayable",
            "type": "function"
        },
        {
            "inputs": [
                {
                    "internalType": "uint256",
                    "name": "_totalFee",
                    "type": "uint256"
                }
            ],
            "name": "setTotalFee",
            "outputs": [],
            "stateMutability": "nonpayable",
            "type": "function"
        },
        {
            "inputs": [
                {
                    "internalType": "address",
                    "name": "_unirouter",
                    "type": "address"
                }
            ],
            "name": "setUnirouter",
            "outputs": [],
            "stateMutability": "nonpayable",
            "type": "function"
        },
        {
            "inputs": [
                {
                    "internalType": "address",
                    "name": "_vault",
                    "type": "address"
                }
            ],
            "name": "setVault",
            "outputs": [],
            "stateMutability": "nonpayable",
            "type": "function"
        },
        {
            "inputs": [
                {
                    "internalType": "uint256",
                    "name": "_fee",
                    "type": "uint256"
                }
            ],
            "name": "setWithdrawalFee",
            "outputs": [],
            "stateMutability": "nonpayable",
            "type": "function"
        },
        {
            "inputs": [
                {
                    "internalType": "address",
                    "name": "_perFeeRecipient",
                    "type": "address"
                }
            ],
            "name": "setperFeeRecipient",
            "outputs": [],
            "stateMutability": "nonpayable",
            "type": "function"
        },
        {
            "inputs": [
                {
                    "internalType": "uint256",
                    "name": "_rate",
                    "type": "uint256"
                }
            ],
            "name": "setxCheeseRate",
            "outputs": [],
            "stateMutability": "nonpayable",
            "type": "function"
        },
        {
            "inputs": [
                {
                    "internalType": "address",
                    "name": "_xCheeseRecipient",
                    "type": "address"
                }
            ],
            "name": "setxCheeseRecipient",
            "outputs": [],
            "stateMutability": "nonpayable",
            "type": "function"
        },
        {
            "inputs": [],
            "name": "strategist",
            "outputs": [
                {
                    "internalType": "address",
                    "name": "",
                    "type": "address"
                }
            ],
            "stateMutability": "view",
            "type": "function"
        },
        {
            "inputs": [],
            "name": "swapKind",
            "outputs": [
                {
                    "internalType": "enum IBalancerVault.SwapKind",
                    "name": "",
                    "type": "uint8"
                }
            ],
            "stateMutability": "view",
            "type": "function"
        },
        {
            "inputs": [],
            "name": "totalFee",
            "outputs": [
                {
                    "internalType": "uint256",
                    "name": "",
                    "type": "uint256"
                }
            ],
            "stateMutability": "view",
            "type": "function"
        },
        {
            "inputs": [
                {
                    "internalType": "address",
                    "name": "newOwner",
                    "type": "address"
                }
            ],
            "name": "transferOwnership",
            "outputs": [],
            "stateMutability": "nonpayable",
            "type": "function"
        },
        {
            "inputs": [],
            "name": "unirouter",
            "outputs": [
                {
                    "internalType": "address",
                    "name": "",
                    "type": "address"
                }
            ],
            "stateMutability": "view",
            "type": "function"
        },
        {
            "inputs": [],
            "name": "unpause",
            "outputs": [],
            "stateMutability": "nonpayable",
            "type": "function"
        },
        {
            "inputs": [],
            "name": "vault",
            "outputs": [
                {
                    "internalType": "address",
                    "name": "",
                    "type": "address"
                }
            ],
            "stateMutability": "view",
            "type": "function"
        },
        {
            "inputs": [],
            "name": "want",
            "outputs": [
                {
                    "internalType": "address",
                    "name": "",
                    "type": "address"
                }
            ],
            "stateMutability": "view",
            "type": "function"
        },
        {
            "inputs": [],
            "name": "wantPoolId",
            "outputs": [
                {
                    "internalType": "bytes32",
                    "name": "",
                    "type": "bytes32"
                }
            ],
            "stateMutability": "view",
            "type": "function"
        },
        {
            "inputs": [
                {
                    "internalType": "uint256",
                    "name": "_amount",
                    "type": "uint256"
                }
            ],
            "name": "withdraw",
            "outputs": [],
            "stateMutability": "nonpayable",
            "type": "function"
        },
        {
            "inputs": [],
            "name": "withdrawalFee",
            "outputs": [
                {
                    "internalType": "uint256",
                    "name": "",
                    "type": "uint256"
                }
            ],
            "stateMutability": "view",
            "type": "function"
        },
        {
            "inputs": [],
            "name": "xCheeseRate",
            "outputs": [
                {
                    "internalType": "uint256",
                    "name": "",
                    "type": "uint256"
                }
            ],
            "stateMutability": "view",
            "type": "function"
        },
        {
            "inputs": [],
            "name": "xCheeseRecipient",
            "outputs": [
                {
                    "internalType": "address",
                    "name": "",
                    "type": "address"
                }
            ],
            "stateMutability": "view",
            "type": "function"
        }
    ],
    "bytecode": "6080604052600a6006819055600755606f60088190556200002460706103e862000ef4565b62000030919062000ef4565b6009556002600a55600c80546001600160a01b031990811673f24bcf4d1e507740041c9cfd2dddb29585adce1e17909155600d80549091167321be370d5312f44cb42ce377bc9b8a0cef1a4c831790553480156200008d57600080fd5b5060405162003d8b38038062003d8b833981016040819052620000b09162000b82565b8282858784620000c9620000c362000505565b62000509565b6000805460ff60a01b19168155600180546001600160a01b03199081166001600160a01b039889161790915560028054821696881696909617909555600380548616948716949094179093556004805485169286169290921790915560058054909316931692909217905589518a91906200015457634e487b7160e01b600052603260045260246000fd5b6020026020010151601581905550886001815181106200018457634e487b7160e01b600052603260045260246000fd5b602002602001015160168190555088600281518110620001b457634e487b7160e01b600052603260045260246000fd5b602002602001015160178190555088600381518110620001e457634e487b7160e01b600052603260045260246000fd5b60209081029190910101516018556013889055601280546001600160a01b0319166001600160a01b038981169190911790915560035460155460405163f6c0092760e01b8152919092169163f6c009279162000244919060040162000d39565b604080518083038186803b1580156200025c57600080fd5b505afa15801562000271573d6000803e3d6000fd5b505050506040513d601f19601f8201168201806040525081019062000297919062000a6c565b50600b80546001600160a01b0319166001600160a01b0392831617905560125460135460405163c346253d60e01b8152919092169163c346253d91620002e1919060040162000d39565b60206040518083038186803b158015620002fa57600080fd5b505afa1580156200030f573d6000803e3d6000fd5b505050506040513d601f19601f8201168201806040525081019062000335919062000a48565b601480546001600160a01b03199081166001600160a01b039384161791829055600e80549091168984161790556040805163f7c618c160e01b81529051919092169163f7c618c1916004808301926020929190829003018186803b1580156200039d57600080fd5b505afa158015620003b2573d6000803e3d6000fd5b505050506040513d601f19601f82011682018060405250810190620003d8919062000a48565b600f80546001600160a01b0319166001600160a01b03928316179055600354601554604051631f29a8cd60e31b8152919092169163f94d46689162000421919060040162000d39565b60006040518083038186803b1580156200043a57600080fd5b505afa1580156200044f573d6000803e3d6000fd5b505050506040513d6000823e601f3d908101601f1916820160405262000479919081019062000aab565b50508051620004909060109060208401906200093b565b50506019805460ff191690556040805160808101825230808252600060208301819052928201819052606090910191909152601a805460ff60a01b196001600160a01b031991821684178116909255601b8054909116909217169055620004f662000559565b50505050505050505062000f61565b3390565b600080546001600160a01b038381166001600160a01b0319831681178455604051919092169283917f8be0079c531659141344cd1fd0a4f28419497f9722a3daafe3b4186f6b6457e09190a35050565b601254600b5462000586916001600160a01b0391821691166000196200063b602090811b620016f117901c565b600354600c54620005b3916001600160a01b0391821691166000196200063b602090811b620016f117901c565b600354600f54620005e0916001600160a01b0391821691166000196200063b602090811b620016f117901c565b600354600e546200060c916001600160a01b03918216911660006200063b602090811b620016f117901c565b600354600e5462000639916001600160a01b0391821691166000196200063b602090811b620016f117901c565b565b801580620006ca5750604051636eb1769f60e11b81526001600160a01b0384169063dd62ed3e9062000674903090869060040162000d06565b60206040518083038186803b1580156200068d57600080fd5b505afa158015620006a2573d6000803e3d6000fd5b505050506040513d601f19601f82011682018060405250810190620006c8919062000ccf565b155b620006f25760405162461bcd60e51b8152600401620006e99062000e3e565b60405180910390fd5b6200074d8363095ea7b360e01b84846040516024016200071492919062000d20565b60408051808303601f190181529190526020810180516001600160e01b0319939093166001600160e01b03938416179052906200075216565b505050565b6000620007ae826040518060400160405280602081526020017f5361666545524332303a206c6f772d6c6576656c2063616c6c206661696c6564815250856001600160a01b0316620007ee60201b620017f0179092919060201c565b8051909150156200074d5780806020019051810190620007cf919062000cad565b6200074d5760405162461bcd60e51b8152600401620006e99062000df4565b6060620007ff848460008562000807565b949350505050565b6060824710156200082c5760405162461bcd60e51b8152600401620006e99062000d77565b600080866001600160a01b031685876040516200084a919062000ce8565b60006040518083038185875af1925050503d806000811462000889576040519150601f19603f3d011682016040523d82523d6000602084013e6200088e565b606091505b509092509050620008a287838387620008ad565b979650505050505050565b60608315620008ef578251620008e757620008c885620008fb565b620008e75760405162461bcd60e51b8152600401620006e99062000dbd565b5081620007ff565b620007ff83836200090e565b6001600160a01b0381163b15155b919050565b8151156200091f5781518083602001fd5b8060405162461bcd60e51b8152600401620006e9919062000d42565b82805482825590600052602060002090810192821562000993579160200282015b828111156200099357825182546001600160a01b0319166001600160a01b039091161782556020909201916001909101906200095c565b50620009a1929150620009a5565b5090565b5b80821115620009a15760008155600101620009a6565b80516001600160a01b03811681146200090957600080fd5b600082601f830112620009e5578081fd5b81516020620009fe620009f88362000ece565b62000e9b565b828152818101908583018385028701840188101562000a1b578586fd5b855b8581101562000a3b5781518452928401929084019060010162000a1d565b5090979650505050505050565b60006020828403121562000a5a578081fd5b62000a6582620009bc565b9392505050565b6000806040838503121562000a7f578081fd5b62000a8a83620009bc565b9150602083015160ff8116811462000aa0578182fd5b809150509250929050565b60008060006060848603121562000ac0578081fd5b83516001600160401b038082111562000ad7578283fd5b818601915086601f83011262000aeb578283fd5b8151602062000afe620009f88362000ece565b82815281810190858301838502870184018c101562000b1b578788fd5b8796505b8487101562000b485762000b3381620009bc565b83526001969096019591830191830162000b1f565b509189015191975090935050508082111562000b62578283fd5b5062000b7186828701620009d4565b925050604084015190509250925092565b60008060008060008060008060006101208a8c03121562000ba1578485fd5b89516001600160401b0381111562000bb7578586fd5b8a01601f81018c1362000bc8578586fd5b805162000bd9620009f88262000ece565b80828252602082019150602084018f6020808602870101111562000bfb57898afd5b8994505b8385101562000c205780518352600194909401936020928301920162000bff565b50809c505050505060208a0151975062000c3d60408b01620009bc565b965062000c4d60608b01620009bc565b955062000c5d60808b01620009bc565b945062000c6d60a08b01620009bc565b935062000c7d60c08b01620009bc565b925062000c8d60e08b01620009bc565b915062000c9e6101008b01620009bc565b90509295985092959850929598565b60006020828403121562000cbf578081fd5b8151801515811462000a65578182fd5b60006020828403121562000ce1578081fd5b5051919050565b6000825162000cfc81846020870162000f18565b9190910192915050565b6001600160a01b0392831681529116602082015260400190565b6001600160a01b03929092168252602082015260400190565b90815260200190565b600060208252825180602084015262000d6381604085016020870162000f18565b601f01601f19169190910160400192915050565b60208082526026908201527f416464726573733a20696e73756666696369656e742062616c616e636520666f6040820152651c8818d85b1b60d21b606082015260800190565b6020808252601d908201527f416464726573733a2063616c6c20746f206e6f6e2d636f6e7472616374000000604082015260600190565b6020808252602a908201527f5361666545524332303a204552433230206f7065726174696f6e20646964206e6040820152691bdd081cdd58d8d9595960b21b606082015260800190565b60208082526036908201527f5361666545524332303a20617070726f76652066726f6d206e6f6e2d7a65726f60408201527f20746f206e6f6e2d7a65726f20616c6c6f77616e636500000000000000000000606082015260800190565b604051601f8201601f191681016001600160401b038111828210171562000ec65762000ec662000f4b565b604052919050565b60006001600160401b0382111562000eea5762000eea62000f4b565b5060209081020190565b60008282101562000f1357634e487b7160e01b81526011600452602481fd5b500390565b60005b8381101562000f3557818101518382015260200162000f1b565b8381111562000f45576000848401525b50505050565b634e487b7160e01b600052604160045260246000fd5b612e1a8062000f716000396000f3fe608060405234801561001057600080fd5b50600436106103d05760003560e01c8063748747e6116101ff578063c89f2ce41161011a578063eaed3f4f116100ad578063f79427d41161007c578063f79427d4146106af578063f84638ee146106b7578063fb617787146106bf578063fbfa77cf146106c7576103d0565b8063eaed3f4f14610684578063f1a392da1461068c578063f2db47be14610694578063f2fde38b1461069c576103d0565b8063dcc3e06e116100e9578063dcc3e06e14610653578063dfbdc4371461057c578063e3ff79521461065b578063e7a7250a1461066e576103d0565b8063c89f2ce414610618578063d0e30db014610630578063d801d94614610638578063d92f3d7314610640576103d0565b806397fd323d11610192578063bbad63f911610161578063bbad63f9146105e2578063bc063e1a146105f5578063c1a3d44c146105fd578063c7b9d53014610605576103d0565b806397fd323d146105ac578063992d0ebb146105b4578063ac1e5025146105c7578063aced1661146105da576103d0565b80638912cb8b116101ce5780638912cb8b1461058c5780638bc7e8c4146105945780638da5cb5b1461059c57806390321e1a146105a4576103d0565b8063748747e6146105615780637d38ca65146105745780637f635cc01461057c5780638456cb5914610584576103d0565b8063363b0485116102ef57806354518b1a11610282578063671f6a2611610251578063671f6a26146105295780636817031b1461053e578063715018a614610551578063722713f714610559576103d0565b806354518b1a146104f1578063573fef0a146104f95780635c975abb14610501578063628116e214610516576103d0565b806341c9d7a4116102be57806341c9d7a4146104d15780634641257d146104d95780634700d305146104e15780634d651e4b146104e9576103d0565b8063363b0485146104b15780633d2f8c87146104b95780633e2d57cc146104c15780633f4ba83a146104c9576103d0565b80631fc8bc5d116103675780632646582611610336578063264658261461047b5780632ad5a53f1461048e5780632e1a7d4d14610496578063343a9d81146104a9576103d0565b80631fc8bc5d1461045b5780631fe4a68614610463578063228cb7331461046b578063257ae0de14610473576103d0565b806311b0b42d116103a357806311b0b42d146104305780631bb5e2dc146104385780631df4ccfc1461044b5780631f1fcd5114610453576103d0565b80630e5c011e146103d55780630e8fbb5a146103ea57806311588086146103fd57806311a9bc6e1461041b575b600080fd5b6103e86103e3366004612660565b6106cf565b005b6103e86103f836600461268e565b6106db565b610405610762565b6040516104129190612879565b60405180910390f35b6104236107f0565b60405161041291906127fd565b6104236107ff565b6104236104463660046126c6565b61080e565b610405610838565b61042361083e565b61042361084d565b61042361085c565b61042361086b565b61042361087a565b6103e86104893660046126c6565b610889565b61040561091a565b6103e86104a43660046126c6565b61091f565b610423610b9a565b610405610ba9565b610405610baf565b610405610bb5565b6103e8610bbb565b610405610c22565b6103e8610c28565b6103e8610c31565b610405610ced565b610405610cf3565b6103e8610cf9565b610509610d2e565b604051610412919061286e565b6103e8610524366004612660565b610d3e565b610531610d68565b604051610412919061294a565b6103e861054c366004612660565b610d71565b6103e8610d9b565b610405610dad565b6103e861056f366004612660565b610dcd565b610405610e3c565b610405610e41565b6103e8610e46565b610509610ea3565b610405610eac565b610423610eb2565b610405610ec1565b610405610ec7565b6103e86105c23660046126c6565b610f6e565b6103e86105d53660046126c6565b610fe1565b610423611054565b6103e86105f0366004612660565b611063565b61040561108d565b610405611093565b6103e8610613366004612660565b611114565b610620611160565b604051610412949392919061282b565b6103e861118c565b6103e86112c5565b6103e861064e366004612660565b611312565b61042361133c565b6103e86106693660046126c6565b61134b565b6106766113be565b604051610412929190612cde565b6104236114db565b6104056114ea565b6104056114f0565b6103e86106aa366004612660565b6114f6565b61040561152d565b610423611533565b6103e8611542565b6104236116e2565b6106d881611807565b50565b6106e3610eb2565b6001600160a01b0316336001600160a01b0316148061070c57506001546001600160a01b031633145b6107315760405162461bcd60e51b815260040161072890612b7a565b60405180910390fd5b601c805460ff1916821515179081905560ff1615610758576107536000610fe1565b6106d8565b6106d8600a610fe1565b6012546013546040516393f1a40b60e01b815260009283926001600160a01b03909116916393f1a40b9161079a913090600401612cc7565b604080518083038186803b1580156107b157600080fd5b505afa1580156107c5573d6000803e3d6000fd5b505050506040513d601f19601f820116820180604052508101906107e991906126f6565b5091505090565b6005546001600160a01b031681565b600d546001600160a01b031681565b6010818154811061081e57600080fd5b6000918252602090912001546001600160a01b0316905081565b60065481565b600b546001600160a01b031681565b6012546001600160a01b031681565b6002546001600160a01b031681565b600f546001600160a01b031681565b6003546001600160a01b031681565b610891610eb2565b6001600160a01b0316336001600160a01b031614806108ba57506001546001600160a01b031633145b6108d65760405162461bcd60e51b815260040161072890612b7a565b606f8111156108f75760405162461bcd60e51b815260040161072890612ad0565b60088190558061090a60706103e8612d62565b6109149190612d62565b60095550565b606f81565b6004546001600160a01b031633146109495760405162461bcd60e51b815260040161072890612aee565b600b546040516370a0823160e01b81526000916001600160a01b0316906370a082319061097a9030906004016127fd565b60206040518083038186803b15801561099257600080fd5b505afa1580156109a6573d6000803e3d6000fd5b505050506040513d601f19601f820116820180604052508101906109ca91906126de565b905081811015610aca576012546013546001600160a01b039091169063d1abb907906109f68585611a03565b306040518463ffffffff1660e01b8152600401610a1593929190612cec565b600060405180830381600087803b158015610a2f57600080fd5b505af1158015610a43573d6000803e3d6000fd5b5050600b546040516370a0823160e01b81526001600160a01b0390911692506370a082319150610a779030906004016127fd565b60206040518083038186803b158015610a8f57600080fd5b505afa158015610aa3573d6000803e3d6000fd5b505050506040513d601f19601f82011682018060405250810190610ac791906126de565b90505b81811115610ad55750805b610add610eb2565b6001600160a01b0316326001600160a01b031614158015610b035750610b01610d2e565b155b15610b3b576000610b2b612710610b2560075485611a1890919063ffffffff16565b90611a24565b9050610b378282611a03565b9150505b600454600b54610b58916001600160a01b03918216911683611a30565b7f5b6b431d4476a211bb7d41c20d1aab9ae2321deee0d20be3d9fc9b1093fa6e3d610b81610dad565b604051610b8e9190612879565b60405180910390a15050565b600c546001600160a01b031681565b60135481565b60165481565b60155481565b610bc3610eb2565b6001600160a01b0316336001600160a01b03161480610bec57506001546001600160a01b031633145b610c085760405162461bcd60e51b815260040161072890612b7a565b610c10611a4f565b610c18611aa4565b610c2061118c565b565b600a5481565b610c2032611807565b610c39610eb2565b6001600160a01b0316336001600160a01b03161480610c6257506001546001600160a01b031633145b610c7e5760405162461bcd60e51b815260040161072890612b7a565b610c86610e46565b6012546013546040516302f940c760e41b81526001600160a01b0390921691632f940c7091610cb9913090600401612cc7565b600060405180830381600087803b158015610cd357600080fd5b505af1158015610ce7573d6000803e3d6000fd5b50505050565b60175481565b61271081565b601c5460ff1615610c20576004546001600160a01b03163314610c285760405162461bcd60e51b815260040161072890612aee565b600054600160a01b900460ff1690565b610d46611b3e565b601180546001600160a01b0319166001600160a01b0392909216919091179055565b60195460ff1681565b610d79611b3e565b600480546001600160a01b0319166001600160a01b0392909216919091179055565b610da3611b3e565b610c206000611b7d565b6000610dc8610dba610762565b610dc2611093565b90611bcd565b905090565b610dd5610eb2565b6001600160a01b0316336001600160a01b03161480610dfe57506001546001600160a01b031633145b610e1a5760405162461bcd60e51b815260040161072890612b7a565b600180546001600160a01b0319166001600160a01b0392909216919091179055565b607081565b603281565b610e4e610eb2565b6001600160a01b0316336001600160a01b03161480610e7757506001546001600160a01b031633145b610e935760405162461bcd60e51b815260040161072890612b7a565b610e9b611bd9565b610c20611c1d565b601c5460ff1681565b60075481565b6000546001600160a01b031690565b60085481565b6000806000610ed46113be565b909250905060008215610f0557601654600c54600d54610f0292916001600160a01b03908116911686611c95565b90505b8115610f3957601854600f54600d54610f2c92916001600160a01b03908116911685611c95565b610f369082612d0b565b90505b610f666103e8610b25600854610f606103e8610b2560065488611a1890919063ffffffff16565b90611a18565b935050505090565b610f76610eb2565b6001600160a01b0316336001600160a01b03161480610f9f57506001546001600160a01b031633145b610fbb5760405162461bcd60e51b815260040161072890612b7a565b6032811115610fdc5760405162461bcd60e51b815260040161072890612ad0565b600655565b610fe9610eb2565b6001600160a01b0316336001600160a01b0316148061101257506001546001600160a01b031633145b61102e5760405162461bcd60e51b815260040161072890612b7a565b603281111561104f5760405162461bcd60e51b815260040161072890612ad0565b600755565b6001546001600160a01b031681565b61106b611b3e565b600580546001600160a01b0319166001600160a01b0392909216919091179055565b6103e881565b600b546040516370a0823160e01b81526000916001600160a01b0316906370a08231906110c49030906004016127fd565b60206040518083038186803b1580156110dc57600080fd5b505afa1580156110f0573d6000803e3d6000fd5b505050506040513d601f19601f82011682018060405250810190610dc891906126de565b6002546001600160a01b0316331461113e5760405162461bcd60e51b8152600401610728906129f5565b600280546001600160a01b0319166001600160a01b0392909216919091179055565b601a54601b546001600160a01b038083169260ff600160a01b9182900481169392831692919091041684565b611194611d98565b600b546040516370a0823160e01b81526000916001600160a01b0316906370a08231906111c59030906004016127fd565b60206040518083038186803b1580156111dd57600080fd5b505afa1580156111f1573d6000803e3d6000fd5b505050506040513d601f19601f8201168201806040525081019061121591906126de565b905080156106d857601254601354604051638dbdbe6d60e01b81526001600160a01b0390921691638dbdbe6d916112529185903090600401612cec565b600060405180830381600087803b15801561126c57600080fd5b505af1158015611280573d6000803e3d6000fd5b505050507f4d6ce1e535dbade1c23defba91e23b8f791ce5edc0cc320257a2b364e4e384266112ad610dad565b6040516112ba9190612879565b60405180910390a150565b6112cd610eb2565b6001600160a01b0316336001600160a01b031614806112f657506001546001600160a01b031633145b610c285760405162461bcd60e51b815260040161072890612b7a565b61131a611b3e565b600380546001600160a01b0319166001600160a01b0392909216919091179055565b6014546001600160a01b031681565b611353610eb2565b6001600160a01b0316336001600160a01b0316148061137c57506001546001600160a01b031633145b6113985760405162461bcd60e51b815260040161072890612b7a565b80600114156113b95760405162461bcd60e51b81526004016107289061299a565b600a55565b60125460135460405162269db960e81b8152600092839283926001600160a01b039092169163269db900916113f7913090600401612cc7565b60206040518083038186803b15801561140f57600080fd5b505afa158015611423573d6000803e3d6000fd5b505050506040513d601f19601f8201168201806040525081019061144791906126de565b6014546013546040516312390ebd60e21b81529293506000926001600160a01b03909216916348e43af491611480913090600401612cc7565b60206040518083038186803b15801561149857600080fd5b505afa1580156114ac573d6000803e3d6000fd5b505050506040513d601f19601f820116820180604052508101906114d091906126de565b919350909150509091565b600e546001600160a01b031681565b601d5481565b60185481565b6114fe611b3e565b6001600160a01b0381166115245760405162461bcd60e51b815260040161072890612a1a565b6106d881611b7d565b60095481565b6011546001600160a01b031681565b6004546001600160a01b0316331461156c5760405162461bcd60e51b815260040161072890612aee565b6012546013546040516302f940c760e41b81526001600160a01b0390921691632f940c709161159f913090600401612cc7565b600060405180830381600087803b1580156115b957600080fd5b505af11580156115cd573d6000803e3d6000fd5b5050600b546040516370a0823160e01b8152600093506001600160a01b0390911691506370a08231906116049030906004016127fd565b60206040518083038186803b15801561161c57600080fd5b505afa158015611630573d6000803e3d6000fd5b505050506040513d601f19601f8201168201806040525081019061165491906126de565b600b546004805460405163a9059cbb60e01b81529394506001600160a01b039283169363a9059cbb9361168c93921691869101612855565b602060405180830381600087803b1580156116a657600080fd5b505af11580156116ba573d6000803e3d6000fd5b505050506040513d601f19601f820116820180604052508101906116de91906126aa565b5050565b6004546001600160a01b031681565b8015806117795750604051636eb1769f60e11b81526001600160a01b0384169063dd62ed3e906117279030908690600401612811565b60206040518083038186803b15801561173f57600080fd5b505afa158015611753573d6000803e3d6000fd5b505050506040513d601f19601f8201168201806040525081019061177791906126de565b155b6117955760405162461bcd60e51b815260040161072890612be6565b6117eb8363095ea7b360e01b84846040516024016117b4929190612855565b60408051601f198184030181529190526020810180516001600160e01b03166001600160e01b031990931692909217909152611dbd565b505050565b60606117ff8484600085611e4c565b949350505050565b61180f611d98565b601254601354604051630c7e663b60e11b81526001600160a01b03909216916318fccc7691611842913090600401612cc7565b600060405180830381600087803b15801561185c57600080fd5b505af1158015611870573d6000803e3d6000fd5b5050600c546040516370a0823160e01b8152600093506001600160a01b0390911691506370a08231906118a79030906004016127fd565b60206040518083038186803b1580156118bf57600080fd5b505afa1580156118d3573d6000803e3d6000fd5b505050506040513d601f19601f820116820180604052508101906118f791906126de565b600f546040516370a0823160e01b81529192506000916001600160a01b03909116906370a082319061192d9030906004016127fd565b60206040518083038186803b15801561194557600080fd5b505afa158015611959573d6000803e3d6000fd5b505050506040513d601f19601f8201168201806040525081019061197d91906126de565b9050600082118061198e5750600081115b156117eb5761199c83611ee8565b6119a461225a565b60006119ae611093565b90506119b861118c565b42601d55337f9bc239f1724cacfb88cb1d66a2dc437467699b68a8c90d7b63110cf4b6f92410826119e7610dad565b6040516119f5929190612cde565b60405180910390a250505050565b6000611a0f8284612d62565b90505b92915050565b6000611a0f8284612d43565b6000611a0f8284612d23565b6117eb8363a9059cbb60e01b84846040516024016117b4929190612855565b611a576123b6565b6000805460ff60a01b191690557f5db9ee0a495bf2e6ff9c91a7834c1ba4fdd244a5e8aa4e537bd38aeae4b073aa611a8d6123da565b604051611a9a91906127fd565b60405180910390a1565b601254600b54611ac3916001600160a01b0391821691166000196116f1565b600354600c54611ae2916001600160a01b0391821691166000196116f1565b600354600f54611b01916001600160a01b0391821691166000196116f1565b600354600e54611b1f916001600160a01b03918216911660006116f1565b600354600e54610c20916001600160a01b0391821691166000196116f1565b611b466123da565b6001600160a01b0316611b57610eb2565b6001600160a01b031614610c205760405162461bcd60e51b815260040161072890612b0e565b600080546001600160a01b038381166001600160a01b0319831681178455604051919092169283917f8be0079c531659141344cd1fd0a4f28419497f9722a3daafe3b4186f6b6457e09190a35050565b6000611a0f8284612d0b565b611be1611d98565b6000805460ff60a01b1916600160a01b1790557f62e78cea01bee320cd4e420270b5ea74000d11b0c9f74754ebdbfc544b05a258611a8d6123da565b601254600b54611c3b916001600160a01b03918216911660006116f1565b600354600c54611c59916001600160a01b03918216911660006116f1565b600354600f54611c77916001600160a01b03918216911660006116f1565b600354600e54610c20916001600160a01b03918216911660006116f1565b6040805160c081019091528481526019546000918291602082019060ff166001811115611cd257634e487b7160e01b600052602160045260246000fd5b81526001600160a01b0380881660208084019190915287821660408085019190915260608401889052805191820181526000825260809093015260035491516352bbbe2960e01b815292935016906352bbbe2990611d3c908490601a906001904290600401612c3c565b602060405180830381600087803b158015611d5657600080fd5b505af1158015611d6a573d6000803e3d6000fd5b505050506040513d601f19601f82011682018060405250810190611d8e91906126de565b9695505050505050565b611da0610d2e565b15610c205760405162461bcd60e51b815260040161072890612aa6565b6000611e12826040518060400160405280602081526020017f5361666545524332303a206c6f772d6c6576656c2063616c6c206661696c6564815250856001600160a01b03166117f09092919063ffffffff16565b8051909150156117eb5780806020019051810190611e3091906126aa565b6117eb5760405162461bcd60e51b815260040161072890612b9c565b606082471015611e6e5760405162461bcd60e51b815260040161072890612a60565b600080866001600160a01b03168587604051611e8a91906127e1565b60006040518083038185875af1925050503d8060008114611ec7576040519150601f19603f3d011682016040523d82523d6000602084013e611ecc565b606091505b5091509150611edd878383876123de565b979650505050505050565b600c546040516370a0823160e01b81526000916001600160a01b0316906370a0823190611f199030906004016127fd565b60206040518083038186803b158015611f3157600080fd5b505afa158015611f45573d6000803e3d6000fd5b505050506040513d601f19601f82011682018060405250810190611f6991906126de565b90508015611f9457601654600c54600d54611f9292916001600160a01b03908116911684611c95565b505b600f546040516370a0823160e01b81526000916001600160a01b0316906370a0823190611fc59030906004016127fd565b60206040518083038186803b158015611fdd57600080fd5b505afa158015611ff1573d6000803e3d6000fd5b505050506040513d601f19601f8201168201806040525081019061201591906126de565b9050801561204057601854600f54600d5461203e92916001600160a01b03908116911684611c95565b505b600654600d546040516370a0823160e01b81526000926120d1926103e892610b2592916001600160a01b0316906370a08231906120819030906004016127fd565b60206040518083038186803b15801561209957600080fd5b505afa1580156120ad573d6000803e3d6000fd5b505050506040513d601f19601f82011682018060405250810190610f6091906126de565b905060006120f06103e8610b2560085485611a1890919063ffffffff16565b600d5490915061210a906001600160a01b03168683611a30565b60006121276103e8610b2560095486611a1890919063ffffffff16565b600554600d54919250612147916001600160a01b03908116911683611a30565b600061215a6103e8610b25866070611a18565b600254600d5491925061217a916001600160a01b03908116911683611a30565b600d546040516370a0823160e01b81526000916001600160a01b0316906370a08231906121ab9030906004016127fd565b60206040518083038186803b1580156121c357600080fd5b505afa1580156121d7573d6000803e3d6000fd5b505050506040513d601f19601f820116820180604052508101906121fb91906126de565b9050801561225057601654600d54600c54600a5461223293926001600160a01b0390811692169061222d908690611a24565b611c95565b50601154600c54612250916001600160a01b03918216911683611a30565b5050505050505050565b600d54600e546001600160a01b0390811691161461231957600c546040516370a0823160e01b81526000916001600160a01b0316906370a08231906122a39030906004016127fd565b60206040518083038186803b1580156122bb57600080fd5b505afa1580156122cf573d6000803e3d6000fd5b505050506040513d601f19601f820116820180604052508101906122f391906126de565b601754600c54600e54929350612316926001600160a01b03918216911684611c95565b50505b600e546040516370a0823160e01b81526000916001600160a01b0316906370a082319061234a9030906004016127fd565b60206040518083038186803b15801561236257600080fd5b505afa158015612376573d6000803e3d6000fd5b505050506040513d601f19601f8201168201806040525081019061239a91906126de565b601554600e549192506106d8916001600160a01b031683612422565b6123be610d2e565b610c205760405162461bcd60e51b8152600401610728906129c7565b3390565b60608315612418578251612411576123f585612627565b6124115760405162461bcd60e51b815260040161072890612b43565b50816117ff565b6117ff8383612636565b60105460009067ffffffffffffffff81111561244e57634e487b7160e01b600052604160045260246000fd5b604051908082528060200260200182016040528015612477578160200160208202803683370190505b50905060005b815181101561251157836001600160a01b0316601082815481106124b157634e487b7160e01b600052603260045260246000fd5b6000918252602090912001546001600160a01b0316146124d25760006124d4565b825b8282815181106124f457634e487b7160e01b600052603260045260246000fd5b60209081029190910101528061250981612da5565b91505061247d565b506000600182600160405160200161252b93929190612958565b60408051601f198184030181526010805460a060208202860181019094526080850181815292955060009493849392919084018282801561259557602002820191906000526020600020905b81546001600160a01b03168152600190910190602001808311612577575b50505091835250506020810185905260408082018590526000606090920191909152600354905163172b958560e31b81529192506001600160a01b03169063b95cac28906125ed908990309081908790600401612882565b600060405180830381600087803b15801561260757600080fd5b505af115801561261b573d6000803e3d6000fd5b50505050505050505050565b6001600160a01b03163b151590565b8151156126465781518083602001fd5b8060405162461bcd60e51b81526004016107289190612987565b600060208284031215612671578081fd5b81356001600160a01b0381168114612687578182fd5b9392505050565b60006020828403121561269f578081fd5b813561268781612dd6565b6000602082840312156126bb578081fd5b815161268781612dd6565b6000602082840312156126d7578081fd5b5035919050565b6000602082840312156126ef578081fd5b5051919050565b60008060408385031215612708578081fd5b505080516020909101519092909150565b6000815180845260208085019450808401835b838110156127485781518752958201959082019060010161272c565b509495945050505050565b15159052565b60008151808452612771816020860160208601612d79565b601f01601f19169290920160200192915050565b600281106127a357634e487b7160e01b600052602160045260246000fd5b9052565b80546001600160a01b03808216845260ff60a092831c8116151560208601526001909301549081166040850152901c161515606090910152565b600082516127f3818460208701612d79565b9190910192915050565b6001600160a01b0391909116815260200190565b6001600160a01b0392831681529116602082015260400190565b6001600160a01b039485168152921515602084015292166040820152901515606082015260800190565b6001600160a01b03929092168252602082015260400190565b901515815260200190565b90815260200190565b6000858252602060018060a01b0380871682850152808616604085015260806060850152610100840185516080808701528181518084526101208801915085830193508692505b808310156128eb578351851682529285019260019290920191908501906128c9565b50848801519450607f199350838782030160a088015261290b8186612719565b94505050506040850151818584030160c08601526129298382612759565b92505050606084015161293f60e0850182612753565b509695505050505050565b60208101611a128284612785565b600060ff85168252606060208301526129746060830185612719565b905060ff83166040830152949350505050565b600060208252611a0f6020830184612759565b60208082526013908201527263616e277420736574207468697320746f203160681b604082015260600190565b60208082526014908201527314185d5cd8589b194e881b9bdd081c185d5cd95960621b604082015260600190565b6020808252600b908201526a085cdd1c985d1959da5cdd60aa1b604082015260600190565b60208082526026908201527f4f776e61626c653a206e6577206f776e657220697320746865207a65726f206160408201526564647265737360d01b606082015260800190565b60208082526026908201527f416464726573733a20696e73756666696369656e742062616c616e636520666f6040820152651c8818d85b1b60d21b606082015260800190565b60208082526010908201526f14185d5cd8589b194e881c185d5cd95960821b604082015260600190565b6020808252600490820152630216361760e41b604082015260600190565b602080825260069082015265085d985d5b1d60d21b604082015260600190565b6020808252818101527f4f776e61626c653a2063616c6c6572206973206e6f7420746865206f776e6572604082015260600190565b6020808252601d908201527f416464726573733a2063616c6c20746f206e6f6e2d636f6e7472616374000000604082015260600190565b60208082526008908201526710b6b0b730b3b2b960c11b604082015260600190565b6020808252602a908201527f5361666545524332303a204552433230206f7065726174696f6e20646964206e6040820152691bdd081cdd58d8d9595960b21b606082015260800190565b60208082526036908201527f5361666545524332303a20617070726f76652066726f6d206e6f6e2d7a65726f60408201527520746f206e6f6e2d7a65726f20616c6c6f77616e636560501b606082015260800190565b600060e08252855160e08301526020860151612c5c610100840182612785565b5060408601516001600160a01b03908116610120840152606087015116610140830152608086015161016083015260a086015160c0610180840152612ca56101a0840182612759565b915050612cb560208301866127a7565b60a082019390935260c0015292915050565b9182526001600160a01b0316602082015260400190565b918252602082015260400190565b92835260208301919091526001600160a01b0316604082015260600190565b60008219821115612d1e57612d1e612dc0565b500190565b600082612d3e57634e487b7160e01b81526012600452602481fd5b500490565b6000816000190483118215151615612d5d57612d5d612dc0565b500290565b600082821015612d7457612d74612dc0565b500390565b60005b83811015612d94578181015183820152602001612d7c565b83811115610ce75750506000910152565b6000600019821415612db957612db9612dc0565b5060010190565b634e487b7160e01b600052601160045260246000fd5b80151581146106d857600080fdfea2646970667358221220e06f2c7cc169161d7e652b6e7a20fc58091c561dfbabd6901e70c13ccbd15ffc64736f6c63430008010033",
    "sourcePath": "c:/Users/ceaho/Documents/GitHub/CeazorVaults/contracts/vaults/Cre9rBLP_CompToBEETS.sol",
    "compiler": {
        "name": "solc",
        "version": "0.8.1+commit.df193b15"
    },
    "functionHashes": {
        "Beets()": "343a9d81",
        "MAX_CALL_FEE()": "2ad5a53f",
        "MAX_FEE()": "bc063e1a",
        "MAX_TOTAL_FEE()": "7f635cc0",
        "STRATEGIST_FEE()": "7d38ca65",
        "WITHDRAWAL_FEE_CAP()": "dfbdc437",
        "WITHDRAWAL_MAX()": "54518b1a",
        "balanceOf()": "722713f7",
        "balanceOfPool()": "11588086",
        "balanceOfWant()": "c1a3d44c",
        "beforeDeposit()": "573fef0a",
        "callFee()": "90321e1a",
        "callReward()": "97fd323d",
        "chef()": "1fc8bc5d",
        "chefPoolId()": "363b0485",
        "deposit()": "d0e30db0",
        "funds()": "c89f2ce4",
        "harvest()": "4641257d",
        "harvest(address)": "0e5c011e",
        "harvestOnDeposit()": "8912cb8b",
        "input()": "eaed3f4f",
        "inputSwapPoolId()": "4d651e4b",
        "keeper()": "aced1661",
        "lastHarvest()": "f1a392da",
        "lpTokens(uint256)": "1bb5e2dc",
        "managerHarvest()": "d801d946",
        "native()": "11b0b42d",
        "nativeSwapPoolId()": "3d2f8c87",
        "owner()": "8da5cb5b",
        "panic()": "4700d305",
        "pause()": "8456cb59",
        "paused()": "5c975abb",
        "perFee()": "f79427d4",
        "perFeeRecipient()": "11a9bc6e",
        "renounceOwnership()": "715018a6",
        "retireStrat()": "fb617787",
        "reward()": "228cb733",
        "rewardSwapPoolId()": "f2db47be",
        "rewarder()": "dcc3e06e",
        "rewardsAvailable()": "e7a7250a",
        "setCallFee(uint256)": "26465826",
        "setHarvestOnDeposit(bool)": "0e8fbb5a",
        "setKeeper(address)": "748747e6",
        "setStrategist(address)": "c7b9d530",
        "setTotalFee(uint256)": "992d0ebb",
        "setUnirouter(address)": "d92f3d73",
        "setVault(address)": "6817031b",
        "setWithdrawalFee(uint256)": "ac1e5025",
        "setperFeeRecipient(address)": "bbad63f9",
        "setxCheeseRate(uint256)": "e3ff7952",
        "setxCheeseRecipient(address)": "628116e2",
        "strategist()": "1fe4a686",
        "swapKind()": "671f6a26",
        "totalFee()": "1df4ccfc",
        "transferOwnership(address)": "f2fde38b",
        "unirouter()": "257ae0de",
        "unpause()": "3f4ba83a",
        "vault()": "fbfa77cf",
        "want()": "1f1fcd51",
        "wantPoolId()": "3e2d57cc",
        "withdraw(uint256)": "2e1a7d4d",
        "withdrawalFee()": "8bc7e8c4",
        "xCheeseRate()": "41c9d7a4",
        "xCheeseRecipient()": "f84638ee"
    },
    "gasEstimates": {
        "creation": {
            "codeDepositCost": "2360400",
            "executionCost": "infinite",
            "totalCost": "infinite"
        },
        "external": {
            "Beets()": "1204",
            "MAX_CALL_FEE()": "318",
            "MAX_FEE()": "317",
            "MAX_TOTAL_FEE()": "341",
            "STRATEGIST_FEE()": "319",
            "WITHDRAWAL_FEE_CAP()": "317",
            "WITHDRAWAL_MAX()": "296",
            "balanceOf()": "infinite",
            "balanceOfPool()": "infinite",
            "balanceOfWant()": "infinite",
            "beforeDeposit()": "infinite",
            "callFee()": "1162",
            "callReward()": "infinite",
            "chef()": "1139",
            "chefPoolId()": "1097",
            "deposit()": "infinite",
            "funds()": "2089",
            "harvest()": "infinite",
            "harvest(address)": "infinite",
            "harvestOnDeposit()": "1108",
            "input()": "1137",
            "inputSwapPoolId()": "1162",
            "keeper()": "1204",
            "lastHarvest()": "1117",
            "lpTokens(uint256)": "2129",
            "managerHarvest()": "infinite",
            "native()": "1139",
            "nativeSwapPoolId()": "1119",
            "owner()": "1182",
            "panic()": "infinite",
            "pause()": "infinite",
            "paused()": "1169",
            "perFee()": "1094",
            "perFeeRecipient()": "1206",
            "renounceOwnership()": "infinite",
            "retireStrat()": "infinite",
            "reward()": "1183",
            "rewardSwapPoolId()": "1139",
            "rewarder()": "1137",
            "rewardsAvailable()": "infinite",
            "setCallFee(uint256)": "infinite",
            "setHarvestOnDeposit(bool)": "infinite",
            "setKeeper(address)": "22953",
            "setStrategist(address)": "22109",
            "setTotalFee(uint256)": "22088",
            "setUnirouter(address)": "22224",
            "setVault(address)": "22179",
            "setWithdrawalFee(uint256)": "22110",
            "setperFeeRecipient(address)": "22157",
            "setxCheeseRate(uint256)": "22109",
            "setxCheeseRecipient(address)": "22224",
            "strategist()": "1161",
            "swapKind()": "1161",
            "totalFee()": "1141",
            "transferOwnership(address)": "23821",
            "unirouter()": "1205",
            "unpause()": "infinite",
            "vault()": "1202",
            "want()": "1205",
            "wantPoolId()": "1141",
            "withdraw(uint256)": "infinite",
            "withdrawalFee()": "1118",
            "xCheeseRate()": "1096",
            "xCheeseRecipient()": "1158"
        },
        "internal": {
            "_giveAllowances()": "infinite",
            "_harvest(address)": "infinite",
            "_removeAllowances()": "infinite",
            "addLiquidity()": "infinite",
            "balancerJoin(bytes32,address,uint256)": "infinite",
            "balancerSwap(bytes32,address,address,uint256)": "infinite",
            "chargeFees(address)": "infinite"
        }
    }
}