{
    "contractName": "LPTokenWrapper",
    "abi": [
        {
            "inputs": [
                {
                    "internalType": "address",
                    "name": "_stakedToken",
                    "type": "address"
                }
            ],
            "stateMutability": "nonpayable",
            "type": "constructor"
        },
        {
            "inputs": [
                {
                    "internalType": "address",
                    "name": "account",
                    "type": "address"
                }
            ],
            "name": "balanceOf",
            "outputs": [
                {
                    "internalType": "uint256",
                    "name": "",
                    "type": "uint256"
                }
            ],
            "stateMutability": "view",
            "type": "function"
        },
        {
            "inputs": [
                {
                    "internalType": "uint256",
                    "name": "amount",
                    "type": "uint256"
                }
            ],
            "name": "stake",
            "outputs": [],
            "stateMutability": "nonpayable",
            "type": "function"
        },
        {
            "inputs": [],
            "name": "stakedToken",
            "outputs": [
                {
                    "internalType": "contract IERC20",
                    "name": "",
                    "type": "address"
                }
            ],
            "stateMutability": "view",
            "type": "function"
        },
        {
            "inputs": [],
            "name": "totalSupply",
            "outputs": [
                {
                    "internalType": "uint256",
                    "name": "",
                    "type": "uint256"
                }
            ],
            "stateMutability": "view",
            "type": "function"
        },
        {
            "inputs": [
                {
                    "internalType": "uint256",
                    "name": "amount",
                    "type": "uint256"
                }
            ],
            "name": "withdraw",
            "outputs": [],
            "stateMutability": "nonpayable",
            "type": "function"
        }
    ],
    "bytecode": "608060405234801561001057600080fd5b5060405161071838038061071883398101604081905261002f91610054565b600080546001600160a01b0319166001600160a01b0392909216919091179055610082565b600060208284031215610065578081fd5b81516001600160a01b038116811461007b578182fd5b9392505050565b610687806100916000396000f3fe608060405234801561001057600080fd5b50600436106100575760003560e01c806318160ddd1461005c5780632e1a7d4d1461007a57806370a082311461008f578063a694fc3a146100a2578063cc7a262e146100b5575b600080fd5b6100646100ca565b60405161007191906105d7565b60405180910390f35b61008d610088366004610458565b6100d0565b005b61006461009d366004610411565b610128565b61008d6100b0366004610458565b610143565b6100bd610199565b60405161007191906104c9565b60015490565b6001546100dd90826101a8565b600155336000908152600260205260409020546100fa90826101a8565b336000818152600260205260408120929092559054610125916001600160a01b0390911690836101bb565b50565b6001600160a01b031660009081526002602052604090205490565b6001546101509082610216565b6001553360009081526002602052604090205461016d9082610216565b336000818152600260205260408120929092559054610125916001600160a01b03909116903084610222565b6000546001600160a01b031681565b60006101b482846105f8565b9392505050565b6102118363a9059cbb60e01b84846040516024016101da9291906104b0565b60408051601f198184030181529190526020810180516001600160e01b03166001600160e01b031990931692909217909152610249565b505050565b60006101b482846105e0565b610243846323b872dd60e01b8585856040516024016101da9392919061048c565b50505050565b600061029e826040518060400160405280602081526020017f5361666545524332303a206c6f772d6c6576656c2063616c6c206661696c6564815250856001600160a01b03166102e19092919063ffffffff16565b80519091501561021157808060200190518101906102bc9190610438565b6102115760405162461bcd60e51b81526004016102d89061058d565b60405180910390fd5b60606102f084846000856102f8565b949350505050565b60608247101561031a5760405162461bcd60e51b81526004016102d890610510565b600080866001600160a01b031685876040516103369190610470565b60006040518083038185875af1925050503d8060008114610373576040519150601f19603f3d011682016040523d82523d6000602084013e610378565b606091505b509150915061038987838387610394565b979650505050505050565b606083156103ce5782516103c7576103ab856103d8565b6103c75760405162461bcd60e51b81526004016102d890610556565b50816102f0565b6102f083836103e7565b6001600160a01b03163b151590565b8151156103f75781518083602001fd5b8060405162461bcd60e51b81526004016102d891906104dd565b600060208284031215610422578081fd5b81356001600160a01b03811681146101b4578182fd5b600060208284031215610449578081fd5b815180151581146101b4578182fd5b600060208284031215610469578081fd5b5035919050565b6000825161048281846020870161060f565b9190910192915050565b6001600160a01b039384168152919092166020820152604081019190915260600190565b6001600160a01b03929092168252602082015260400190565b6001600160a01b0391909116815260200190565b60006020825282518060208401526104fc81604085016020870161060f565b601f01601f19169190910160400192915050565b60208082526026908201527f416464726573733a20696e73756666696369656e742062616c616e636520666f6040820152651c8818d85b1b60d21b606082015260800190565b6020808252601d908201527f416464726573733a2063616c6c20746f206e6f6e2d636f6e7472616374000000604082015260600190565b6020808252602a908201527f5361666545524332303a204552433230206f7065726174696f6e20646964206e6040820152691bdd081cdd58d8d9595960b21b606082015260800190565b90815260200190565b600082198211156105f3576105f361063b565b500190565b60008282101561060a5761060a61063b565b500390565b60005b8381101561062a578181015183820152602001610612565b838111156102435750506000910152565b634e487b7160e01b600052601160045260246000fdfea2646970667358221220161968244b19b2afb1d9953eee6fe3f6f72ec37fa7245c0f25debb0d0ae4ef3364736f6c63430008010033",
    "sourcePath": "c:/Users/ceaho/Documents/GitHub/CeazorVaults/beefy-contracts/interfaces/LPTokenWrapper.sol",
    "compiler": {
        "name": "solc",
        "version": "0.8.1+commit.df193b15"
    },
    "functionHashes": {
        "balanceOf(address)": "70a08231",
        "stake(uint256)": "a694fc3a",
        "stakedToken()": "cc7a262e",
        "totalSupply()": "18160ddd",
        "withdraw(uint256)": "2e1a7d4d"
    },
    "gasEstimates": {
        "creation": {
            "codeDepositCost": "334200",
            "executionCost": "infinite",
            "totalCost": "infinite"
        },
        "external": {
            "balanceOf(address)": "1257",
            "stake(uint256)": "infinite",
            "stakedToken()": "1136",
            "totalSupply()": "1006",
            "withdraw(uint256)": "infinite"
        }
    }
}